:0200000460009A
:100000004643464200000156000000000101020084
:1000100000000000000000000000000000000000E0
:1000200000000000000000000000000000000000D0
:1000300000000000000000000000000000000000C0
:1000400000000000010403000000000000000000A8
:100050000000200000000000000000000000000080
:100060000000000000000000000000000000000090
:100070000000000000000000000000000000000080
:10008000EB04180A063204260000000000000000FD
:10009000050404240000000000000000000000002F
:1000A0000000000000000000000000000000000050
:1000B0000604000000000000000000000000000036
:1000C0000000000000000000000000000000000030
:1000D00020041808000000000000000000000000DC
:1000E0000000000000000000000000000000000010
:1000F0000000000000000000000000000000000000
:1001000000000000000000000000000000000000EF
:100110000204180804200000000000000000000095
:1001200000000000000000000000000000000000CF
:10013000600400000000000000000000000000005B
:1001400000000000000000000000000000000000AF
:10015000000000000000000000000000000000009F
:10016000000000000000000000000000000000008F
:10017000000000000000000000000000000000007F
:10018000000000000000000000000000000000006F
:10019000000000000000000000000000000000005F
:1001A000000000000000000000000000000000004F
:1001B000000000000000000000000000000000003F
:1001C000000100000010000001000000000000001D
:1001D000000000000000000000000000000000001F
:1001E000000000000000000000000000000000000F
:1001F00000000000000000000000000000000000FF
:10020000D4D4D4D4D4D4D4D4D4D4D4D4D4D4D4D4AE
:10100000D10020400020006000000000000000002F
:1010100020100060001000600000000000000000D0
:1010200000000060F8AC000000000000EFBEADDE84
:10103000124880F3088812481249016000F036F81F
:10104000114812490022814201D004C0FBE7104838
:101050001049114A814202D008CA08C0FAE70F4875
:101060004FF47001026842EA01020260BFF34F8F41
:10107000BFF36F8F00F014F800DE00000040002086
:1010800008ED00E000400020005000209485002082
:10109000B842002058440020FCAC006088ED00E01D
:1010A00040F2111CC0F2000C6047D4D41C4840F23E
:1010B000924188420CBF1B4A1B4A1C4B5360136869
:1010C00023F0800313601A481A4901BF1A480A0C1A
:1010D0008264C1F30F014164016C41F004010164B9
:1010E0001648174A824205D01649814202D008CAE2
:1010F00008C0FAE71448154A824205D014498142D3
:1011000002D008CA08C0FAE71248134A824205D042
:101110001249814202D008CA08C0FAE770470000AD
:10112000240400000080034000C00B4020C528D9E3
:1011300000C00A40AAAAFAFF00400E4000000000CA
:10114000B8220060E475000000400020002000602C
:10115000B842002000002020A09800605C142020ED
:10116000D4D4D4D4D4D4D4D4D4D4D4D4D4D4D4D43F
:10117000D4D4D4D4D4D4D4D4D4D4D4D4D4D4D4D42F
:10118000D4D4D4D4D4D4D4D4D4D4D4D4D4D4D4D41F
:10119000D4D4D4D4D4D4D4D4D4D4D4D4D4D4D4D40F
:10200000004000203110006007150000C975000075
:10201000071500000715000007150000000000006C
:102020000000000000000000000000000715000094
:10203000071500000000000007150000071500004C
:102040000715000007150000071500000715000020
:102050000715000007150000071500000715000010
:102060000715000007150000071500000715000000
:1020700007150000071500000715000007150000F0
:102080000715000000000000000000000000000034
:1020900007150000071500000715000007150000D0
:1020A00007150000071500000715000007150000C0
:1020B00007150000071500000715000007150000B0
:1020C00007150000071500000715000007150000A0
:1020D0000715000007150000071500000715000090
:1020E0000715000007150000071500000715000080
:1020F0000715000007150000071500000715000070
:10210000071500000715000007150000071500005F
:102110000000000007150000000000000715000087
:10212000071500000715000007150000071500003F
:10213000071500000715000000000000071500004B
:10214000071500000715000007150000071500001F
:102150000715000007150000000000000000000047
:1021600007150000071500000715000007150000FF
:1021700007150000071500000715000007150000EF
:1021800007150000071500000715000007150000DF
:1021900007150000071500000715000007150000CF
:1021A00007150000071500000715000007150000BF
:1021B00007150000071500000715000007150000AF
:1021C00007150000071500000715000000000000BB
:1021D0003B00000007150000071500000715000070
:1021E000071500000715000007150000071500007F
:1021F000071500000715000007150000071500006F
:1022000007150000971300000715000007150000D0
:10221000071500000715000007150000071500004E
:10222000071500000715000007150000071500003E
:10223000071500000715000007150000000000004A
:10224000000000000715000007150000071500003A
:10225000071500000715000007150000071500000E
:1022600007150000071500000715000007150000FE
:1022700007150000071500000715000007150000EE
:1022800007150000071500000715000007150000DE
:1022900007150000071500000715000007150000CE
:1022A00007150000071500000715000000000000DA
:0822B0000715000007150000EE
:1022B800084640F20001C2F22001022206F06CBC7E
:1022C80045F200000121C2F20000BFF35F8F4172A6
:1022D8004EF20C20CEF200001021016070477047CA
:1022E80080B56F4606F088F8FCE7B0B502AF88B055
:1022F80045F20004C2F20004207A002846D004F116
:1023080009000021D0E84F2F012A45D1C0E8421F1B
:10231800002AF7D1BFF35F8F2079002844D12068C5
:102328000125D0E9000101F01F0105FA01F1C0F80B
:102338008C1048F28C50C2F200000068032816D3B3
:10234800002040F2AC01069040F2C002059040F235
:102358000400C2F22000C2F22001049002A80291F7
:10236800C2F2200203210023039505F0CEFF257158
:102378000020BFF35F8F207241F22820C2F22000B4
:10238800C16840F21100C0F200008847002008B080
:10239800BDE8B04006F032B8BFF32F8F002008B078
:1023A800BDE8B04006F02AB840F2F00040F2DC0286
:1023B800C2F22000C2F22002232106F019F9FEDE43
:1023C80080B56F4606F00BF848F290500121C2F232
:1023D800000001704EF20C10CEF20000F02180F8DF
:1023E80058131021016000F003F8FFF779FFFEDEB3
:1023F800F0B503AF2DE90007ADF5856D04AC2046B7
:1024080000F018FD04F1340004F1380104F154021D
:1024180000F0CAFE369803F0FFF94E9800220168D2
:1024280041F0010101604E99086820F0020008603F
:102438003498C1F80821C1F81821C1F82821C1F839
:102448003821016821F001010160016841F400416F
:1024580001600168090409D50168090444BF0168DD
:102468005FEA014102D501680904F2D43F21816085
:10247800016821F0010101603598016821F001012E
:102488000160016841F4004101600168090409D54F
:102498000168090444BF01685FEA014102D5016887
:1024A8000904F2D43F218160016821F00101016033
:1024B8005B9803F068F9049940F26342886C40F035
:1024C80001008864486C10434864486C012262F338
:1024D80083004864486C20F080004864886C40F0B1
:1024E80020008864486C40F440404864486C40F4DC
:1024F80044704864886C40F080008864886D0007E8
:1025080009D0886D00071CBF886D5FEA007002D093
:10251800886D0007F2D1886C40F020008864486C10
:1025280020F4404048644A6C059822F4447202F54D
:1025380088724A64816C40F2634241F0010181640F
:10254800416C11434164416C012262F3830141648F
:10255800416C21F080014164816C41F0200181646B
:10256800416C41F440414164416C41F4447141641F
:10257800816C41F080018164816D090709D0816D0A
:1025880009071CBF816D5FEA017102D0816D0907DF
:10259800F2D1816C41F020018164416C21F4404109
:1025A8004164416C21F4447101F588714164639C74
:1025B80003F095F8054603F094F80346F4A821467D
:1025C8002A4603F090F85E99A7F128004FF480524C
:1025D80003F047F8DDE91B1274A8DDF8B480DDF8D4
:1025E8009491DDF8A0A16A9C03F005F850AB4FF474
:1025F80070450F260FCBA0F88C51A0F88E61A1F87A
:102608008C51A1F88E61A2F88C51A2F88E61A3F8C2
:102618008C51A3F88E61CDE9034874ACCDE9019AD9
:10262800204600F0EEFF01A9204600F0EFFF04A8C5
:1026380000F0AAFD45F20002C2F2000202F108030E
:10264800D3E84F6F4EB90125BFF35F8FC3E8465FEC
:10265800BEB1D3E84F6F002EF8D040F24C0040F2E4
:102668003003C2F22000BFF32F8F009040F2040025
:1026780074AAC2F22000C2F220032B2105F0F0FF59
:10268800FEDE0023BFF35F8F137141F25C43C2F299
:10269800200301261360BFF35F8F56724EF20C229F
:1026A8001026CEF200021660C3E9000105F099FE7B
:1026B8000DF5856DBDE80007F0BD006805F0E6BEC4
:1026C80080B56F468AB0019044F2B820C2F200008B
:1026D8000021D0E84F2FC0E8431F002BF9D162B387
:1026E80048F28C50C2F200000168481E18BF012051
:1026F800012988BF4FF0FF30411C1CBFC0B2002821
:102708001BD1002040F2141106900120039040F2E2
:102718008812059008A8049040F20B40C0F200000F
:10272800C2F22001099001A8089002A80291C2F201
:1027380020020121002305F0E8FD00F001F8FEDE8B
:1027480080B56F4648F248100521C4F21F004FF2C9
:10275800800301603821C0F8F0114CF26C00C4F21B
:102768000A004DF2801E01684AF2003CC0F2FA23CA
:10277800C0F6F00E21F0080101604CF28400C1F2AD
:10278800E11CC4F21B0050F8801C41F0080140F81D
:10279800801C082101601A46013AFDD141601A46A1
:1027A800013AFDD101601A46013AFDD141601A464D
:1027B800013AFDD101601A46013AFDD141601A463D
:1027C800013AFDD101607246013AFDD1416072467D
:1027D800013AFDD101607246013AFDD1416072466D
:1027E800013AFDD101607246013AFDD1416072465D
:1027F800013AFDD101601A46013AFDD141601A46FD
:10280800013AFDD101601A46013AFDD141601A46EC
:10281800013AFDD101601A46013AFDD141601A46DC
:10282800013AFDD16246013AFDD1B3E7F0B503AFF5
:102838004DF8048D84B00468216879BBD0E9011291
:102848004FF0FF33C06823600968D0F8008004F1B6
:102858002000167803F067F801ADCDE9010128469C
:1028680003F07BF8284603F0C0F8002E18BF0126B5
:102878002846314603F0C5F82846012103F085F8BB
:102888002846414603F08FF8284603F072F820687E
:102898000130206004B05DF8048BF0BD40F21020D8
:1028A80040F2A413C2F22000A7F11102009040F2F6
:1028B8006C00C2F22000C2F22003102105F0D0FE05
:1028C800FEDE704770477047084640F2CC41C2F2BE
:1028D8002001122206F097BAF0B503AF2DE9000FD8
:1028E800B3B048F26811044648F23410C2F200014D
:1028F800C2F20000016001208DF8100005F081FD92
:1029080046F2000541F23810C2F200052918BFF35B
:102918005F8F51E8000F40F0004241E80023002B90
:10292800F7D1B0F1FF3FBFF35F8F40F3118245F25B
:1029380024000122C2F20000BFF35F8F00F5C070CF
:10294800D0E84F1FC0E8432F002BF9D1039400298A
:10295800BFF35F8F40F0088245F224004FF4C07146
:10296800C2F2000002F059FFCDE9300149F200003F
:10297800C4F20D0005F586512F900020C4F22E00F8
:102988000DF19C0B2E9041F2381028442D90062012
:102998004FF0000ACDE92A0105F58051299101215E
:1029A8002C904FF00109CDE927505846ADF8C8A042
:1029B80004F012F8BBE87E000DF1140808F10400D9
:1029C8007EC09BE87E007EC040469DF810108DF8C2
:1029D8004890CDF814A003F09DF903999DF848009C
:1029E8002A9104A9299126A9CDF898A0CDE9278193
:1029F80018B127A8FFF71AFF0DE005F0FAFC044606
:102A080005F0EDFC05F0FDFC27A8FFF70FFFE00738
:102A180008BF05F0E6FC48F2000AB8E85C00C2F21C
:102A2800000A0AF10C0B40F2014158465CC0B8E8B4
:102A38007C007CC098E87C007CC000200322CAF897
:102A480044008023CAF800004FF0FF30AAF80410B1
:102A58000821CAF80800FF20CDE900218021029052
:102A68005846002203F09CFB0D46DAF80810C00710
:102A780001F10101CAF8081040F08281DAF800007B
:102A8800002840F084819AF8046000200029CAF8E0
:102A9800000006F101028AF8042040F054814FF04A
:102AA800FF310222CAF808104021CDE90021002197
:102AB800029058460022002303F072FB0C46DAF815
:102AC8000810C00701F10101CAF8081040F064813C
:102AD800002940F038814FF0FF304FF04009CAF824
:102AE800080002204FF00008CDE90009584680216F
:102AF80000228023CDF8088003F052FBDAF8082082
:102B0800C00702F10102CAF8082040F0488148F2E3
:102B180038104FF40073C2F20000002A80F8261023
:102B280040F2FF3180F82D600AF14406A0F80F103A
:102B38004FF00801818181804FF4FA51A0F82E806E
:102B480080F82C80A0F82730A0F824900662A0F81E
:102B58001B308476A0F8189046618573866080F8EB
:102B68000680016040F0EF804FF0FF304021CAF846
:102B780008000020CDE900010021029058460122FA
:102B8800002303F00DFB8946DAF80810C00701F1AD
:102B98000101CAF8081040F01681002940F0D380DE
:102BA8004FF0FF304021CAF808000020CDE90001AD
:102BB8008021029058460122802303F0F1FA8846CA
:102BC800DAF80810C00701F10101CAF8081040F04E
:102BD8000181DAF80000002840F010814FF0FF3042
:102BE8000029CAF8000040F00E81CAF808005846CB
:102BF80003F063FBDAF808000130CAF80800C0F0F7
:102C080007814FF0FF3005ADCAF80800E81CBFF394
:102C18005F8FCAF844B08021BFF35F8F06F02AFEA9
:102C28005846812103F0D2F85846012103F0CEF826
:102C38005846822103F0CAF85846022103F0C6F824
:102C48005846832103F0C2F85846032103F0BEF822
:102C58005846842103F0BAF85846042103F0B6F820
:102C68005846852103F0B2F85846052103F0AEF81E
:102C78005846862103F0AAF85846062103F0A6F81C
:102C88005846872103F0A2F85846072103F09EF81A
:102C980048F24804DDE92701C2F20004BDF8A42087
:102CA8006281BDF89820C4F806109DF89A10C4F8FF
:102CB800020004F12100A4F815208322E1752946B9
:102CC80006F0D2FD4FF0806140F2DE42C4E937B130
:102CD8003221C4F8D6100221C4F20001C2F2200247
:102CE800C4F8D2101021A4F8D01045F62401C2F27D
:102CF800DD710020C4F8CC100921C4E92F2140213E
:102D080017F8D52C37F8D73C84F8E400C4F8C40089
:102D1800C4E92B00C4F8B400C4F8A400A4F81F0048
:102D280084F81E80A183A661A4F8130084F8129089
:102D38002182E6602080A4F8E53084F8E72033B0EB
:102D4800BDE8000FF0BD40F2BC30C2F2200063E0E5
:102D580040F2202040F2A022C2F22000C2F220025B
:102D68001F2105F075FBFEDE40F2F02040F25032E4
:102D7800C2F22000C2F22002202105F069FBFEDE2B
:102D880040F2BC408DF81450C2F220000DE040F231
:102D9800FC30C2F220003FE08DF8144001E08DF8CD
:102DA800141040F2AC40C2F2200040F20C430090F4
:102DB80040F29C4005AAC2F22000C2F220030F2173
:102DC80005F04EFCFEDE40F28C408DF81490C2F205
:102DD800200005E040F27C408DF81480C2F220000B
:102DE80040F20C43009040F2B02005AAC2F2200045
:102DF800C2F22003202105F033FCFEDE40F2EC3065
:102E0800C2F2200008E040F2DC30C2F2200003E009
:102E180040F2CC30C2F2200040F2A413009040F2FD
:102E28006C0005AAC2F22000C2F22003102105F0AE
:102E380017FCFEDEF0B503AF2DE9000F81B045F2B7
:102E48000C014FF0010CC2F20001BFF35F8FD1E813
:102E58004F2FC1E843CF002BF9D1BFF35F8F002A72
:102E680001BF48F20001C4F20D010022C4F22F0292
:102E780001BF02F5542C02F5502E02F54C28A1F59D
:102E8800004401BFA1F5003501F5F61601F5F4136C
:102E9800C0E9683601BFC0E96A54C0E96C8EC0E970
:102EA8006EC101F5005E01BF01F5805640F2040CC9
:102EB800C4F22E0C01F5021401BF0CF5FE7501F5E4
:102EC800004300F5C07888E8380001BF00F5C673F4
:102ED80083E81210C0E9666EA1F5404C01BF01F508
:102EE800881E01F5861801F5841401F5821301BFC7
:102EF80001F5003602F51025C0E9585600F5B475FD
:102F080001BF85E81A41C0F87CC1A1F5804C02F5E3
:102F18001C2E01BF02F5182802F51424A1F5E03390
:102F280001F5282601BF01F5EE15C0E9505600F558
:102F3800A47585E8184101BFC0E9562C02F5782828
:102F480002F5742902F5702401BF02F56C234CF2D6
:102F5800000CC4F2070C0CF5004601BF01F5E03E79
:102F680001F58E15C0E9485EC0E94A6101BF00F568
:102F7800987585E81802C0F83C8101F5482801BF1A
:102F880001F5442901F5402A01F53C2B01F53823C8
:102F980001BF01F5342401F5302501F52C26C0E9DF
:102FA800406501BFC0E94243C0E944BAC0E9469858
:102FB80002F5302801BF02F52C2902F5282A02F56E
:102FC800242B02F5861301BF02F5841402F582153D
:102FD80002F58016C0E9386501BFC0E93A43C0E987
:102FE8003CBAC0E93E9801F5F01801BF01F5921905
:102FF800A1F5503AA1F5403BA1F5303301BF01F5E9
:10300800901401F58C1501F58A16C0E9306501BFE9
:10301800C0E93243C0E934BAC0E9369844F2000B3B
:1030280001BFC4F2002B0BF500490BF5804A4FF0A5
:10303800844801BF01F56C2601F5682401F5642573
:10304800A1F5C03301BFC0E9283500F1A80383E822
:103058005009C0E92EA901BF01F5602801F5E6195C
:1030680001F5E81AA1F5203601BF0BF5E03301F5AB
:10307800582401F55425C0E9205401BF00F1880403
:1030880084E84804C0E9259EC0F89C8001BFA1F5EA
:10309800103E01F5FE1801F5001902F5642A01BF7A
:1030A80002F5602302F55C2602F5582501F5A034E7
:1030B80001BF00F1600B8BE87000C0E91B3AC0E962
:1030C8001D9801BFC0F87CE001F5803E02F540483C
:1030D8000CF5804901BF01F5804A01F5F21344F26D
:1030E8000806C4F2090601BF06F1100506F1080436
:1030F800C0E91064C0E9125301BFC0E914A9C0E9CE
:10310800168E0CF5C03E01F5103801BF01F5801987
:1031180001F57C2401F5782302F57C2601BF02F530
:103128004825C0E9085600F1280585E8180201BFBE
:10313800C0E90D81C0F83CE002F5442E02F50C26EA
:1031480001BF01F5D21501F5242402F54022A1F5AD
:10315800803301BFA1F5A031C0E90013C0E9022CFA
:10316800103001BF80E8704001B0BDE8000FF0BD2D
:1031780040F2E74040F27C52C2F22000C2F2200244
:10318800352105F035FAFEDE48F248110068C4F230
:103198001F0105230A6863F303020A60416841F0CE
:1031A8000801416003217047F0B503AF4DF804BD35
:1031B8000E4600211546044602F0FAFA284640F267
:1031C800E24102F0FCFA304602F0BFF940F2303535
:1031D8002146C2F2200500222846366802F0DCF9B2
:1031E800A81C2146002202F0D7F9281D21460022FA
:1031F80002F0D2F9A81D2146002202F0CDF905F10E
:1032080008002146002202F0C7F905F10A0021460C
:10321800002202F0C1F905F10C002146002202F05B
:10322800BBF905F10E002146002202F0B5F905F1BF
:1032380010002146002202F0AFF905F112002146E4
:10324800002202F0A9F905F114002146002202F03B
:10325800A3F905F116002146002202F09DF905F1B7
:1032680018002146002202F097F905F11A002146BC
:10327800002202F091F905F11C002146002202F01B
:103288008BF905F11E002146002202F085F920681D
:103298004169890107D5416921F0007141612046E2
:1032A80002F077FA20684169012221F060514161FA
:1032B8002068816962F30D318161204602F069FA64
:1032C8002068416941F000714161204602F061FACD
:1032D8004FF480503060642030604FF400507060CC
:1032E8003068002809D4306800285CBF306800289E
:1032F80003D43068B0F1FF3FF2DC20680122016995
:1033080062F302010161204602F043FA2068416934
:1033180021F4E0514161204602F03BFA20688169BE
:1033280041F4402181612068416921F000714161C7
:10333800204602F02EFA206840F29655C2F2200587
:103348000022416941F4407141612846214602F05A
:1033580023F9A81C2146002202F01EF9281D214647
:10336800002202F019F9A81D2146002202F014F9E2
:103378002068022640F29E550022C2F22005816B89
:1033880066F3D84181632068816B41F480218163B1
:103398002846214602F000F9A81C2146002202F026
:1033A800FBF8281D2146002202F0F6F8A81D214648
:1033B800002202F0F1F8206840F28C550322C2F294
:1033C8002005816966F3051181612068816962F3CE
:1033D8009C61816128462146002202F0DDF8A81C84
:1033E8002146002202F0D8F8281D2146002202F0CA
:1033F800D3F8A81D2146002202F0CEF805F10800F6
:103408002146002202F0C8F82068172240F28C05F5
:10341800C2F22005C16962F30501C161206800227A
:10342800C16941F04001C1612846214602F0B4F863
:10343800A81C2146002202F0AFF8281D21460022D0
:1034480002F0AAF8A81D2146002202F0A5F805F10D
:1034580008002146002202F09FF805F10A002146E3
:10346800002202F099F805F10C002146002202F032
:1034780093F805F10E002146002202F08DF820682D
:1034880040F2A655C2F220050322416A41F04001EC
:1034980041622068416A66F3050141622846214677
:1034A80002F07AF8A81C2146032202F075F8281DBC
:1034B8002146032202F070F8A81D2146032202F0DB
:1034C8006BF805F108002146032202F065F805F1C2
:1034D8000A002146032202F05FF805F10C0021469C
:1034E800032202F059F805F10E002146032202F0EA
:1034F80053F805F110002146032202F04DF805F1BA
:1035080012002146032202F047F805F11400214673
:10351800032202F041F805F116002146032202F0C9
:103528003BF805F118002146032202F035F805F1B1
:103538001A002146032202F02FF805F11C0021464B
:10354800032202F029F805F11E002146032202F0A9
:1035580023F805F120002146032202F01DF805F1A9
:1035680022002146032202F017F805F12400214623
:10357800032202F011F805F126002146032202F089
:103588000BF805F128002146032202F005F805F1A1
:103598002A002146032201F0FFFF05F12C002146F5
:1035A800032201F0F9FF05F12E002146032201F064
:1035B800F3FF05F130002146032201F0EDFF05F18C
:1035C80032002146032201F0E7FF05F134002146CD
:1035D800032201F0E1FF05F136002146032201F044
:1035E800DBFF05F138002146032201F0D5FF05F184
:1035F8003A00214603225DF804BBBDE8F04001F023
:10360800CBBF80B56F4600F014FF80BD80B56F4614
:103618004EF20C1C4FF4003ECEF2000C44F2BC22D9
:10362800CCF880E0C2F20002BFF35F8FD0E900312E
:103638008068C2E900319060BFF35F8FCCF800E189
:10364800CCF800E080BDF0B503AF4DF8048D86B02E
:1036580045F21008C2F20008D8F8000028B106B0F8
:103668005DF8048BBDE8F040004744F2BC20C2F28C
:1036780000000068062832D100F0BCFF00F0B9FF56
:10368800039048F26810C2F20000012200F21240D2
:10369800BFF35F8FD0E84F1FC0E8432F002BF9D14D
:1036A8000029BFF35F8F58D148F268144FF4806146
:1036B800C2F20004204606F0DBF804F080FE06465D
:1036C800204601F03AFE03A8FFF706F942F29710E8
:1036D800C0F2000001F026FF0546304635E000F054
:1036E80089FF00F086FF029048F26810C2F20000DD
:1036F800012200F21240BFF35F8FD0E84F1FC0E8ED
:10370800432F002BF9D1BFF35F8FC1BB48F2681577
:103718004FF48061C2F20005284606F0A9F804F0CB
:103728004EFE44F2BC210446C2F20001284600F0D5
:1037380062FE08BB02A8FFF7CFF842F29710C0F26A
:10374800000001F0EFFE0546204604F043FEC8F8ED
:10375800005006B05DF8048BF0BD49F20000C4F2D9
:103768000D0005900020C4F22E00CDE9030040F2C0
:103778009060C2F2200010E0204604F02BFE49F2CF
:103788000000C4F20D0005900020C4F22E00CDE91F
:10379800030040F28060C2F2200040F21063009003
:1037A80040F2E25003AAC2F22000C2F220032B2109
:1037B80004F056FFFEDEFEE7D0B502AF84B0044643
:1037C8000088062812D1A0690168BFF35F8F81B114
:1037D8000020A27F40F2A063009002A8C2F220035A
:1037E80002F053FE0820208004B0D0BD072004B0AA
:1037F800D0BD40F2387040F2BC72C2F22000C2F272
:103808002002222104F0F4FEFEDEF0B503AF4DF8ED
:1038180004BD86B0044608880D46411E032928D3F6
:10382800052826D0072836D1D5F8AC00D5F80630BB
:1038380069898128D5F80220ADF80C10CDE901235B
:1038480073D2E9680968BFF35F8F002961D0C0F1BE
:103858008003AA7C2844009300F1240304A802F002
:10386800D7FE9DF8100000283ED09DF8110008BB37
:1038780034E0E8680168BFF35F8F002949D0AA7C6B
:1038880040F2A06304A80026C2F22003009602F0CA
:10389800BFFE2E8022E0E8680168BFF35F8FC1B3E6
:1038A8000020AA7C40F2A063009004A8C2F2200382
:1038B80002F0AEFEE868092129800068BFF35F8F37
:1038C80038B3A97C012202F066FFA8690068BFF33B
:1038D8005F8FF0B1A97F012202F05DFF04206072C2
:1038E80006B05DF804BBF0BD0598D5E92B12084475
:1038F800C5F8AC009042F1D3DDE901010623BDF81B
:103908000C202B8020606160228106B05DF804BB2A
:10391800F0BD40F2387040F2BC72C2F22000C2F230
:103928002002222104F064FEFEDE40F208728021AB
:10393800C2F2200205F071FAFEDEF0B503AF2DE900
:10394800000F85B00446C8680D460168BFF35F8F55
:10395800002900F08B8005F124068020AA7C0090C5
:1039680002A8334602F054FE9DF8080018B19DF8ED
:10397800090060B921E0039A812A80F0838002A8B7
:10398800314604F012F89DF8110004281BD1E868AC
:10399800092129800068BFF35F8F002866D0A97CC1
:1039A800012202F0F8FEA8690068BFF35F8F0028C3
:1039B8005CD0A97F012202F0EEFE0420607205B0FF
:1039C800BDE8000FF0BDE868BDF810A09DF80F60D5
:1039D8009DF80E90BDF80CB0DDF808800068BFF3C4
:1039E8005F8F002842D0A97C002202F0D4FEBEB12D
:1039F8000420A5F80AA06E7285F80890A5F806B00C
:103A0800C5F802802880A4F808A0E67184F806901A
:103A1800A4F804B0C4F8008005B0BDE8000FF0BDFC
:103A2800BBF1000F11D0BBF1800FB0D80020A5F872
:103A38000AA0C5E92B0B6872072085F80890A5F83D
:103A480006B0C5F802802880B7E70620A4F808A0C9
:103A580028800020C5F8B000E07184F80690A080A6
:103A6800C4F8008005B0BDE8000FF0BD40F2387022
:103A780040F2BC72C2F22000C2F22002222104F0FD
:103A8800B7FDFEDE40F218731046C2F22003802113
:103A98001A4605F0E3F9FEDEB0B502AF84B004467D
:103AA800D0E92951D0F8AC00D4F8B0C0002DA38BD0
:103AB800AE46ACEB000208BF04F1240E9A4238BFB0
:103AC8001346002D03EB000C08BF80219C4525D32D
:103AD8008C452BD8A1690968BFF35F8F71B3A27FAA
:103AE80000930EEB000302A802F0CFFC9DF808003B
:103AF80008B104B0B0BD0398D4E92B120144C4F84E
:103B0800AC109142F5D30021A28BC4F8A410032174
:103B1800904208BF0221218004B0B0BD40F2287253
:103B28006146C2F2200205F0BAF9FEDE40F22872C0
:103B38006046C2F2200205F091F9FEDE40F23870CC
:103B480040F2BC72C2F22000C2F22002222104F02C
:103B58004FFDFEDEB0B502AF84B0044600880138E0
:103B6800072834D8DFE800F0040B24333333334B11
:103B78002046FFF791FF0025284604B0B0BDA06994
:103B88000168BFF35F8F00293FD0A27F40F2A06396
:103B980002A80025C2F22003009502F076FC9DF8E9
:103BA8000800002804BF03202080284604B0B0BDC8
:103BB800E0680068BFF35F8F38B3A17C002200255E
:103BC80002F0E9FD05202080284604B0B0BDE06879
:103BD800092121800068BFF35F8FB0B1A17C012269
:103BE80002F0D9FDA0690068BFF35F8F68B1A17FBB
:103BF800012202F0D0FD0025284604B0B0BD002007
:103C080001252080284604B0B0BD40F2387040F24B
:103C1800BC72C2F22000C2F22002222104F0E8FCA9
:103C2800FEDED0B502AF0446008800F00D0004287F
:103C380015D1E068092121800068BFF35F8F80B14A
:103C4800A17C012202F0A7FDA0690068BFF35F8F85
:103C580038B1A17F012202F09EFD0820D0BD0720C7
:103C6800D0BD40F2387040F2BC72C2F22000C2F2FD
:103C78002002222104F0BCFCFEDEF0B503AF2DE9E2
:103C8800000788B08246008804284CD191E8500289
:103C98006D460AF1240128468022BAF8068003F00E
:103CA800A6FE2168284603F094FFC0B2082836D142
:103CB800B9F1000F10D006EBC9046D46D6E9000132
:103CC800CA6829469047C0B2082828D1284603F078
:103CD800E8FF0836A642F1D16D46284603F0E4FF16
:103CE800284603F08DFE802822D9DAF80C00092135
:103CF800AAF800100068BFF35F8F50B39AF812104B
:103D0800012202F048FDDAF818000068BFF35F8F5F
:103D1800F8B19AF81E10012202F03DFD022008B009
:103D2800BDE80007F0BD072008B0BDE80007F0BDFA
:103D3800404538BF804601200021AAF800005046BF
:103D4800CAE92B18FFF7A8FE082008B0BDE800074D
:103D5800F0BD40F2387040F2BC72C2F22000C2F2EC
:103D68002002222104F044FCFEDEF0B503AF4DF83A
:103D780004BD8AB004460088042833D101AD04F19B
:103D880024018022E688284603F031FE40F20940EB
:103D9800A7F1120227F8120C28460321022303F088
:103DA80031FEC0B2082819D101A803F029FE8028E5
:103DB8001DD9E068092121800068BFF35F8F30B307
:103DC800A17C012202F0E7FCA0690068BFF35F8FC5
:103DD800E8B1A17F012202F0DEFC02200AB05DF802
:103DE80004BBF0BD07200AB05DF804BBF0BDB042CB
:103DF80038BF06460120002120802046C4E92B1642
:103E0800FFF74AFE08200AB05DF804BBF0BD40F297
:103E1800387040F2BC72C2F22000C2F220022221A5
:103E280004F0E6FBFEDEF0B503AF4DF804BD044632
:103E38000088042806D14D68802D07D902205DF836
:103E480004BBF0BD07205DF804BBF0BD096804F1B0
:103E580024002A46E68805F007FD0020B54238BF51
:103E68002E46C4E92B06012020802046FFF714FEC9
:103E780008205DF804BBF0BDF0B503AF2DE9000BD9
:103E880088B004460088042830D1D1E90056E846B5
:103E980004F1240140468022B4F8069003F0A7FDFF
:103EA80040462946324603F0F1FFC0B2082819D12E
:103EB800684603F0A5FD80281DD9E0680921218006
:103EC8000068BFF35F8F30B3A17C012202F063FC6E
:103ED800A0690068BFF35F8FE8B1A17F012202F0FB
:103EE8005AFC022008B0BDE8000BF0BD072008B05E
:103EF800BDE8000BF0BD484538BF814601200021D0
:103F080020802046C4E92B19FFF7C6FD082008B019
:103F1800BDE8000BF0BD40F2387040F2BC72C2F24E
:103F28002000C2F22002222104F062FBFEDEF0B57E
:103F380003AF2DE9000F8BB083460088042826D1F3
:103F48000D46E9460BF12401904648468022BBF80D
:103F580006A003F04CFD08AE4946304604F057F879
:103F6800304604F058F8C0B208280CD108AE4FEA21
:103F7800C8048CB1F5E802010A6931469047083C4B
:103F8800C0B20828F5D00BB0BDE8000FF0BD07207F
:103F98000BB0BDE8000FF0BD08A804F00EF96846A4
:103FA80003F02EFD80281DD9DBF80C000921ABF8A1
:103FB80000100068BFF35F8F28B39BF8121001222E
:103FC80002F0E9FBDBF818000068BFF35F8FD0B19F
:103FD8009BF81E10012202F0DEFB02200BB0BDE8A8
:103FE800000FF0BD504538BF824601200021ABF8D4
:103FF80000005846CBE92B1AFFF74EFD08200BB0FE
:10400800BDE8000FF0BD40F2387040F2BC72C2F259
:104018002000C2F22002222104F0EAFAFEDEF0B506
:1040280003AF4DF8048D88B00446008804282ED1CB
:104038000D686E4604F1240130468022B4F80680EB
:1040480003F0D5FC3046294603F029FDC0B2082804
:1040580019D1684603F0D4FC80281DD9E0680921ED
:1040680021800068BFF35F8F30B3A17C012202F08A
:1040780092FBA0690068BFF35F8FE8B1A17F0122BE
:1040880002F089FB022008B05DF8048BF0BD072020
:1040980008B05DF8048BF0BD404538BF804601206C
:1040A800002120802046C4E92B18FFF7F5FC0820E2
:1040B80008B05DF8048BF0BD40F2387040F2BC7275
:1040C800C2F22000C2F22002222104F091FAFEDEA0
:1040D800006804F013BB0A46D0E9000104F097BE5B
:1040E80070477047F0B503AF4DF804BD84B0006861
:1040F800802906684FF00000029003D28DF808105E
:10410800012434E0B1F5006F09D20224084664F3B3
:104118009F108DF80900C02040EA911025E0022088
:104128000A4660F39F12B1F5803F0DD28DF80A2040
:104138008A0960F39F12E02040EA11308DF80920C7
:104148008DF80800032412E08DF80B208A0960F32B
:104158009F128DF80A200A0B042460F39F12880C22
:104168001E218DF8092061F3DF008DF8080004F0A6
:1041780026F90546B068B8B94FF0FF3006F10C02D1
:10418800B06002A8214601F0E2F80446B0680130A8
:10419800B060284604F01EF9E0B2033818BF0120C9
:1041A80004B05DF804BBF0BD40F6800040F60C0397
:1041B800C2F22000A7F11102009040F26C00C2F296
:1041C8002000C2F22003102104F04AFAFEDE80B576
:1041D8006F4682B000680A4640F2CC71019001A88F
:1041E800C2F2200104F08FFA02B080BDF0B503AF2F
:1041F8004DF8048D82B0006815460E46046804F038
:10420800DEF88046A068B8B94FF0FF3004F10C0220
:10421800A0603046294601F09AF80546A0680130AA
:10422800A060404604F0D6F8E8B2033818BF012071
:1042380002B05DF8048BF0BD40F6800040F60C0338
:10424800C2F22000A7F11102009040F26C00C2F205
:104258002000C2F22003102104F002FAFEDEF0B5BD
:1042680003AF2DE9000748F28C52D1F80080C2F262
:1042780000021368B8EB030218BF0122984538BF43
:104288004FF0FF32531C1CBFD2B2002A29D142681A
:104298005AB300680025D1E9019A02EB4201061DD4
:1042A8008C0005E00C3C06F10C0605F1010518D060
:1042B80030685045F6D156F8040C4946524605F088
:1042C800D5FA0028EED1706800218045A0F10600DB
:1042D800B0FA80F098BF012140090843BDE8000703
:1042E800F0BD0020BDE80007F0BD0120BDE80007D3
:1042F800F0BDF0B503AF2DE9000F93B08146084635
:1043080048F28C500091C2F20000D1F820A0016858
:10431800BAEB010018BF01208A4538BF4FF0FF30C3
:10432800411C1CBFC0B2002824D1D9F8040028B30E
:10433800009900EB40004FF00008D1E909B486006D
:10434800D9F800100D1D05E00C3E05F10C0508F12B
:1043580001080FD02868A042F6D155F8040C594638
:10436800224605F083FA0028EED16868062818BFAF
:10437800824506D913B0BDE8000FF0BD0098D0E91A
:1043880009B401A80290002040F2CC7107900420E3
:10439800049040F2EC70C2F2200003AA03900320BC
:1043A800069009A8059041F62160C0F20000C2F20B
:1043B80020010E9012A80D9041F62760C0F200006F
:1043C800CDF804900C9010A80B9045F6A570C0F29B
:1043D8000000CDF83CA00A900FA809900098CDE9FC
:1043E80010B42C30129002A804F08DF913B0BDE877
:1043F800000FF0BD7047D0B502AF45F214020C466D
:10440800D1E90113C2F200024FF0000CD06082E83B
:104418000A1040F69001C2F22001104603F02CFF6A
:10442800002801BF216848F28C52C2F200021160D4
:10443800D0BD40F2A0620021C2F220020523C0E9EB
:10444800003281607047F0B503AF2DE9000B84B0EE
:1044580040F6A80048F2301848F24805C2F2200099
:104468000390C2F2000808F10800C2F2000502A990
:1044780002902846012200F04BFB04460021D5F8A3
:10448800DC00029102A900F02AFD064695F8E21028
:1044980098F80000022937D168B9D5F8DC0001F096
:1044A8003DFE0021D5F8DC00029102A900F05EFC77
:1044B800012088F80000D8F81C000168BFF35F8F5E
:1044C800002900F08A80002098F8222040F2A0639A
:1044D800009002A8C2F22003344302F099F87CB19C
:1044E800D8F804000122BFF35F8F00F58264D4E896
:1044F8004F1FC4E8432F002BF9D1BFF35F8F91B151
:1045080004B0BDE8000BF0BD30B10021D5F8DC00E7
:10451800029102A900F08DFC002088F8000004B088
:10452800BDE8000BF0BDD0F80014BFF35F8FD0F8E2
:104538000824BFF35F8FD0F8043400F20445BFF3BA
:104548005F8F934205D199423EBFBFF35F8F00232F
:104558002B60994228BF0A469A4236D0D8F82810CC
:104568000968BFF35F8FC1B3A2EB030998F82E2047
:10457800034402A84E46B9F1400F28BF40260096D2
:1045880001F083FF9DF8080068B12078BFF35F8FC2
:104598000028B5D0BFF35F8F55E8000F45E800014C
:1045A8000029F9D111E003982178BFF35F8F002922
:1045B800A6D0814538BF4846BFF35F8F55E8001F36
:1045C800014445E80012002AF8D10020BFF35F8FAC
:1045D800207004B0BDE8000BF0BD40F2387040F226
:1045E800BC72C2F22000C2F22002222104F000F8BC
:1045F800FEDE70474FF47A607047F0B503AF4DF8B0
:10460800048D8C46816881B3C36841698B4249D265
:104618000269D0F818E0D45C0134D4540EF10203D6
:104628008B421ED80EF58074A14238BF0C469C42BE
:1046380048D3E41A052C14D39CF80640BCF804505F
:10464800D45413440EF107049CF808608C429CF87B
:1046580007805E704FEA15269D7083F80480DE702F
:1046680007D902205DF8048BF0BD07205DF8048BA4
:10467800F0BD8E451ED2072302F80E300EF101035D
:104688008B423FBF0521D154846108203CBF5DF8AF
:10469800048BF0BD40F66012C2F22002184603F007
:1046A800BEFFFEDE40F67012C2F22002184603F08A
:1046B800B6FFFEDE40F650127046C2F2200203F04A
:1046C800AEFFFEDE40F640121846C2F22002214636
:1046D80004F0E5FBFEDEF0B503AF2DE9000784B07A
:1046E8001D46904689468246D6000C4686B1F4E8B7
:1046F80002012A464B6A51469847BAF80000083E1C
:1047080000F00D000428F1D004B0BDE80007F0BDAA
:10471800687A20B3BAF8000000F00D000428F3D13D
:10472800DAF80C000921AAF800100068BFF35F8FBF
:1047380000286CD09AF81210012202F02CF8DAF84E
:1047480018000068BFF35F8F002860D09AF81E1029
:10475800012202F020F804B0BDE80007F0BD297A74
:10476800A879022916D0012923D00029D2D198B3DB
:10477800062843D00828CDD19AF8E20001210391F8
:10478800A7F1220102380291B0FA80F0400907F837
:10479800220C2EE00028BDD16988DAF8DC0001F08F
:1047A8008F0102F07AF802210391A7F12201029108
:1047B8001DE050B10A28ADD101200390A7F12200D5
:1047C8000290002007F8220C13E002200390A7F1C2
:1047D8002200029000200AE09AF8E00002229AF8EB
:1047E800E1100392A7F12202029241EA400027F861
:1047F800220C02A95046FFF716FB8BE70AF1B4001A
:10480800494642465346009500F0D6F882E740F202
:10481800387040F2BC72C2F22000C2F2200222219B
:1048280003F0E6FEFEDED4D4F0B503AF4DF8048DF8
:1048380084B01D460E468046D4006CB1F6E80201ED
:104848002A460B6A41469847B8F80000083C00F031
:104858000D000428F1D09DE0687A38B1B8F800005E
:1048680000F00D00042840F0958061E02A7AA879CC
:104878002988022A2FD0012A0FD0002A58D10138BE
:10488800082855D8DFE800F00554405446545454DD
:104898004F0001294CD1002039E00B2808BF00291E
:1048A80046D1B8F800000628D8D1D8F81800016811
:1048B800BFF35F8F002961D098F81E20002040F2D6
:1048C800A063009002A8C2F2200301F0DEFD0820D8
:1048D800A8F80000C2E701280CD0032808BF002967
:1048E80026D169880122D8F8DC0001F08F0101F097
:1048F80052FF59E0E1B969880022D8F8DC0001F0DC
:104908008F0101F048FF4FE0012911D1012088F8FB
:10491800E00049E0481E80B27F2809D2D8F8DC00C0
:1049280001F07DFC3DE0C9B3012901D1022039E045
:10493800B8F8000000F00D0004282BD1D8F80C00BE
:104948000921A8F800100068BFF35F8FB0B198F88C
:104958001210012201F01FFFD8F818000068BFF3F9
:104968005F8F00281FBF98F81E10012204B05DF861
:10497800048B1CBFBDE8F04001F00DBF40F2387059
:1049880040F2BC72C2F22000C2F22002222103F0DF
:104998002FFEFEDE04B05DF8048BF0BD98F8E2004F
:1049A80030B1012088F8E2004046FEF705FF55E7E0
:1049B8004046FFF736F951E7F0B503AF2DE9000B94
:1049C80088B00646B86814460D469846019601898F
:1049D80002684068ADF81010CDE9022002A803F083
:1049E80002F84FF0FF3252FA80F00E2800F2618090
:1049F800DFE800F008101C5F5F5F5F5F5F5F5F5F6D
:104A08005F5F2A0001A94046FFF709FB08B0BDE82F
:104A1800000BF0BD01A805A905904046CDE9065454
:104A2800FFF72BF908B0BDE8000BF0BDC8B20328AA
:104A380013D8DFE800F0022428384046FFF795F93C
:104A480008B0BDE8000BF0BD404629462246FFF7F6
:104A58006EFA08B0BDE8000BF0BD084602F0C6FFCC
:104A6800BDF80A608146E4001CB3F5E8020132464D
:104A78004B6949469847083C0028F5D009E0311DA4
:104A8800306828B915E006F10C010836306880B1A5
:104A98000968CDE9050105A94046FFF7EDF908B019
:104AA800BDE8000BF0BD06F114011036306800288F
:104AB800EED1B8F8000000F00D000428A6D1D8F80F
:104AC8000C000921A8F800100068BFF35F8F98B1A7
:104AD80098F81210012201F05EFED8F8180000685C
:104AE800BFF35F8F40B198F81E10012201F053FE0A
:104AF80008B0BDE8000BF0BD40F2387040F2BC725F
:104B0800C2F22000C2F22002222103F071FDFEDE73
:104B1800F0B503AF2DE9000F8BB0D0F8DC400646A6
:104B2800A7F12E0088469246214601F009FF96F823
:104B3800E20037F82E5C032816D1002D4FF0000054
:104B480018BF032D03D10BB0BDE8000FF0BD204600
:104B580001F0F5FE96F8E300042800F0FB8004213C
:104B680086F8E20086F8E310DFE805F00308274A34
:104B7800030000200BB0BDE8000FF0BDD6F8DC0044
:104B880001F0E0FB00204FF48061BAF1000F86F8D5
:104B9800E40086F8E000A6F8E2103080E9D008EBDF
:104BA800CA04A8F1080555F8080F69688969884793
:104BB80005F10800A042F6D1DBE737F82C0C37F8EE
:104BC8002A1C37F8282C0390084340EA020905916B
:104BD80004925FEAC9704DD00598C0071CBF3046E3
:104BE800FEF7B8FF0498C0071AD10398C00721D16F
:104BF800042007F81D0C17F81D0C042823D137E0F2
:104C0800D6F8DC0001F09BFE96F8E20086F8E30097
:104C1800032086F8E20000200BB0BDE8000FF0BDCD
:104C2800A7F126003146FEF788FE17F81D0C042868
:104C380009D11DE0A7F126003146FEF7E6FD17F879
:104C48001D0C042814D017F81F0C002873D08028D6
:104C58000ED1A7F12603304641465246FFF73BFDE9
:104C680029F00109B9F1000FCDE9018A07D14DE01A
:104C780029F00109B9F1000FCDE9018A46D002995E
:104C8800002953D001984FF0020B012600EBC10810
:104C9800A0F1080504982C461BEA000F0AD054F826
:104CA800080F61688A6A3146904704F10800404558
:104CB800F5D10EE003982C461BEA000F09D054F8F2
:104CC800080F6168CA6A3146904704F108004045F8
:104CD800F5D105981BEA000F0DD066F07F04AA46AF
:104CE8005AF8080FDAF804100A6B214690470AF1BF
:104CF80008004045F4D129EA0B095FEA094005D0CC
:104D0800701C0F2E4FEA4B0B0646C3D3029969B1AC
:104D1800019800EBC104A0F1080555F8080F69686F
:104D2800C969884705F10800A042F6D101200BB0F7
:104D3800BDE8000FF0BDA7F12603304641465246B4
:104D4800FFF772FD29F00109B9F1000FCDE9018AD9
:104D580095D1DBE740F6801040F6FC12C2F2200045
:104D6800C2F220021C2103F073FBFEDEF0B503AF94
:104D78004DF804BD84B0044690F834000E68C8B1FC
:104D88002068002842D14FF0FF31204640F8201B10
:104D9800314600F0C8FDCDE9010101A800F049FE47
:104DA80000281CBF0DF1040000F0C1FD206801308F
:104DB800206027E003F01DFB054603F010FB03F01D
:104DC80020FB206810BB4FF0FF31204640F8201B25
:104DD800314600F0A8FDCDE9010101A800F029FE47
:104DE80000281CBF0DF1040000F0A1FD206801306F
:104DF8002060E80706D104B05DF804BBBDE8F040C8
:104E080003F0EFBA04B05DF804BBF0BD40F67820BB
:104E180040F60C23C2F22000A7F11102009040F2E4
:104E28006C00C2F22000C2F22003102103F018FC2B
:104E3800FEDEF0B503AF4DF804BD84B0044690F82B
:104E480034000D6890B12068B0BB4FF0FF302946A0
:104E5800206004F1200000F066FDCDE9010101A801
:104E680000F07BFD20680130206021E003F0C1FAEA
:104E7800064603F0B4FA03F0C4FA2068E0B94FF02C
:104E8800FF302946206004F1200000F04CFDCDE9F8
:104E9800010101A800F061FD206801302060F007E1
:104EA80006D104B05DF804BBBDE8F04003F099BA40
:104EB80004B05DF804BBF0BD40F6782040F60C2342
:104EC800C2F22000A7F11102009040F26C00C2F279
:104ED8002000C2F22003102103F0C2FBFEDEF0B571
:104EE80003AF4DF804BD84B0044690F834000E6852
:104EF800D8B12068002858D14FF0FF31204640F83B
:104F0800201B314600F00FFDCDE9010101A800F09A
:104F18005CFD60B301AD284600F067FD284600F04F
:104F280054FD0028F7D1012626E003F062FA054671
:104F380003F055FA03F065FA2068B0BB4FF0FF3173
:104F4800204640F8201B314600F0EDFCCDE9010178
:104F580001A800F03AFDB8B101AE304600F045FDB9
:104F6800304600F032FD0028F7D1012611E001A8F3
:104F780000F0E9FC80F0010620680130206030462E
:104F880004B05DF804BBF0BD01A800F0DCFC80F0C3
:104F98000106206801302060E80708BF03F021FA05
:104FA800304604B05DF804BBF0BD40F6782040F60A
:104FB8000C23C2F22000A7F11102009040F26C000D
:104FC800C2F22000C2F22003102103F049FBFEDEEA
:104FD8000020704770470820704770477047F0B549
:104FE80003AF4DF8048D0546507A012802BF1646D6
:104FF800107A012802D05DF8048BF0BD95F82C00DA
:105008008846748802F0F2FCC0B28442F3D1B079C9
:10501800212804BFB088072830D0B8F8000000F075
:105028000D000428E7D1D8F80C000921A8F80010D1
:105038000068BFF35F8FA8B198F81210012201F041
:10504800AAFBD8F818000068BFF35F8F00281FBFBD
:1050580098F81E1001225DF8048BBDE8F04018BFD7
:1050680001F099BB40F2387040F2BC72C2F22000E5
:10507800C2F22002222103F0BBFAFEDEB8F80000DB
:105088000428B8D1B8F80600002329796A790728D6
:10509800C8F8AC30AB792E684FF00105A8F800507D
:1050A800C8F8246088F8283088F8292088F82A1059
:1050B80028BF0720C8F8B00040465DF8048BBDE85B
:1050C800F040FEF7E9BCF0B503AF4DF8048D84B0AD
:1050D8000546507A012802BF1646107A012803D0E7
:1050E80004B05DF8048BF0BD95F82C0088467488F0
:1050F80002F07CFCC0B28442F2D1B07988B1202899
:1051080014D0222847D13078B8F8001000F00102F6
:1051180085F82E20C0F3400085F82F000629DFD13E
:1051280021E0B8F800000628DAD11CE0D8F8B00071
:10513800812862D206282ED998F82800D8F8241099
:10514800296000F0F0F998F82910C0B2A871084653
:1051580000F0EEF998F82A20C0B2B8F8001068718B
:105168002A710629BCD1D8F818000168BFF35F8FEF
:10517800B9B398F81E20002040F2A063009002A85E
:10518800C2F2200301F081F90820A8F8000004B059
:105198005DF8048BF0BDB8F8000000F00D0004289D
:1051A8009ED1D8F80C000921A8F800100068BFF3B8
:1051B8005F8FB0B198F81210012201F0ECFAD8F81C
:1051C80018000068BFF35F8F00281FBF98F81E10F3
:1051D800012204B05DF8048B1CBFBDE8F04001F06B
:1051E800DABA40F2387040F2BC72C2F22000C2F261
:1051F8002002222103F0FCF9FEDE40F6F022802195
:10520800C2F2200203F02AFEFEDEF0B503AF2DE95C
:10521800000B84B090F82C60814600250220CDE96F
:1052280000050C46084631460222022302F04DFDD5
:10523800C0B208286ED120463146022202230095CA
:1052480002F099FDC0B2082864D140F60032204629
:10525800C2F220022421032302F0D4FBC0B20828A2
:1052680058D140F603322046C2F2200224210223FC
:1052780002F0C8FBC0B208284CD1304602F0B6FB99
:1052880099F82D800646404602F0B0FB07F81C0C42
:105298000620A7F11E0207F81E0C2046242103232E
:1052A80007F81D6C02F0AEFBC0B2082832D14046A8
:1052B80002F09CFB07F8190C0120A7F11B0227F844
:1052C8001B0C20462421032302F09CFBC0B20828B3
:1052D80020D109F108012046FFF78FF9C0B208284C
:1052E80018D100204146009020460A22002302F0EF
:1052F80042FDC0B208280DD109F120012046FFF770
:105308007CF9C0B2082805D109F114012046FFF73D
:1053180074F9C0B204B0BDE8000BF0BDD0B502AF5F
:1053280082B00446684600F008F9DDE90001C4E9E6
:1053380000010020E08502B0D0BD48F27C51C2F2E5
:10534800000188600120BFF35F8F08707047F0B5D7
:1053580003AF2DE9000F81B0D2F8008089460446DA
:10536800012108F21145BFF35F8FD5E84F0FC5E85B
:10537800421F002AF9D1BFF35F8F20B1012001B08D
:10538800BDE8000FF0BDD8F80004BFF35F8FD8F870
:105398000414BFF35F8F884204D2C24311EB020B9F
:1053A8000BD176E0B0F5806F05D1012971D9A1F153
:1053B800010B002001E0C0F5806BCA46CB4538BF21
:1053C800DA460AEB00014044BFF35F8FC8F80C14BB
:1053D8002146524604F048FA98F8110408F20C469F
:1053E800BFF35F8F58B3D8F80004BFF35F8FBFF3E4
:1053F8005F8F56E8001F46E80012002AF9D1BFF374
:105408005F8FB0F5806FD8F80824BFF35F8FD8F8A6
:105418000C14BFF35F8F01D0814203D3914205D9A9
:105428004FF48060BFF35F8FC8F80804BFF35F8F45
:10543800C8F800140020BFF35F8F88F81104CB452B
:105448006BD204EB0A01A9EB0A020123BFF35F8FB9
:10545800D5E84F0FC5E8443F002CF9D10028BFF329
:105468005F8F7FF48BAFD8F80004BFF35F8FD8F855
:105478000434BFF35F8F984203D2C4431B1913D17E
:1054880007E0B0F5806F0DD1012B02D9013B002058
:105498000AE000200021BFF35F8F297001B0BDE84A
:1054A800000FF0BDC0F58063934238BF1A46131849
:1054B8004044BFF35F8FC8F80C3404F0D5F998F86E
:1054C8001104BFF35F8F40B3D8F80004BFF35F8FB8
:1054D800BFF35F8F56E8001F46E80012002AF9D193
:1054E800BFF35F8FB0F5806FD8F80824BFF35F8FE4
:1054F800D8F80C14BFF35F8F01D0814203D39142D7
:1055080005D94FF48060BFF35F8FC8F80804032003
:10551800BFF35F8FC8F80014BCE7032001B0BDE8F3
:10552800000FF0BD7047C1B2032928BF00207047A3
:10553800C1B2052928BF00207047082181800021B9
:1055480081714FF4FA510160704780B56F46006869
:105558004FF400514FF480524FF0400C4FF4803E0E
:1055680000E0416103699B04FBD50369DB0401D4B6
:105578004261F7E70369B3F1FF3FF3DC0369DB033B
:1055880006D403695B0648BF80BDC0F814C0E9E7CC
:10559800C0F818E0E6E7D4D40378D1F800C0DFE813
:1055A80003F004070A0D101316190CF1680C13E028
:1055B8000CF16C0C10E00CF1700C0DE00CF1740C9B
:1055C8000AE00CF1780C07E00CF17C0C04E00CF11B
:1055D800800C01E00CF1840C40780321DCF80030E9
:1055E8004000C0B2824001FA00F023EA00001043F4
:1055F800CCF800007047F0B503AF2DE90007ADF512
:10560800047D6D46804628464FF4007104F030F959
:1056180044F2C829A5F11006C2F200090DF5007A76
:1056280000244D46D9E96001CDE9820150468194B4
:10563800809502F0E7FD80AB01340C35202C0FCBB0
:1056480046F8100F06F104000EC0EBD1694640463B
:105658004FF4007204F006F90DF5047DBDE800076B
:10566800F0BDF0B503AF2DE9000B44F2E043C4F2FE
:105678001F031B68C3F30B2E4FEA135CE6451FBFDD
:105688000124C1F88841DBB24FF47A781FBF03FBCD
:1056980008F9ACEB0E04D1F8906149F658651FBFC4
:1056A800CFF6FF7513FB085393FBF4F3C2EA060227
:1056B8001FBFC1F8902180E80A40C0F80C90BDE8EF
:1056C800000B18BFF0BD40F6903040F67432C2F2BD
:1056D8002000C2F22002192102F08AFFFEDE022019
:1056E80070470F207047B0B502AF054608680C46F2
:1056F80040F480300860086840F0400008602220CC
:1057080063F31340486040F26850C0F20C1008621E
:1057180040F29510C0F2B2004862DC20C0F27A0074
:1057280088627D20C0F25800C8624B20C0F2400059
:1057380008632F20C0F22E004863886346F62010C5
:10574800C86040F6A31088604FF4C840C8614FF4A1
:10575800C860886140F6C410C0F6804008613F20E8
:105768004861086820F0030010430860086820F4C6
:1057780080300860C86F4021281D04F079F8102097
:105788002C606864B0BD00F1340200F1500110468D
:105798007047006803E0816C002908BF7047816C7E
:1057A80029B1816C00291CBF816C0029F3D1704795
:1057B8000068426D22F0030211434165704740F2D0
:1057C8002762914238BF0A46B2F5487F98BF4FF426
:1057D8004872A2F5487144F2AF7300688AB25A431E
:1057E800C368A1EB124189B2490801EB124123F0C9
:1057F8001F0242EA1111C16004E00168B1F1FF3FE4
:10580800D8BF70470168002905D4016800295CBF2A
:1058180001680029F1D57047704701447047F0B519
:1058280003AF4DF8048D82B005468846EE68012125
:10583800006831607168F26162F31E417160CAB13B
:10584800B06040F6FF71B068884300F58050F060A2
:10585800F0686FF30B0000F58050306130696FF32A
:105868000B0000F58050706170696FF30B0000F554
:10587800805004E00020B060F06030617061B06179
:105888008021706840F400407060706861F3070020
:105898007060009602F0A7FD4EF670746846CEF26E
:1058A800000420F01C00206002F09DFD02F09EFD27
:1058B800A8688660C16821F0FF01C160019002F00C
:1058C80092FD01A820F01C0020602030206002F02A
:1058D8008AFD02F08BFD95F910204FF47F01D8F86E
:1058E80000004FF48033B2F1FF3F02F01F02C8BF3F
:1058F800FF21C8BF012303FA02F21140C0F8B0111A
:10590800D0F8B01159B1D0F8B01100291CBFD0F8A7
:10591800B011002903D0D0F8B0110029F0D102B09D
:105928005DF8048BF0BD0246084611467047D0E981
:1059380000018C220968002808BF8422885840F09A
:10594800004088507047D0E900018C22096800287F
:1059580008BF84228858C00F7047D0E900018C2204
:105968000968002808BF8422885820F00040885021
:105978007047D0E900018C220968002808BF8422FA
:10598800885840F0804088507047D0E900028C2346
:105998001268002808BF8423D05820F0807040EA9D
:1059A8000160D0507047D0E900028823002808BF62
:1059B80080236FF07F401268814238BF0846012873
:1059C80098BF01200138D0507047D0E900014FF04E
:1059D800007209680028D1F8441108BF4FF080729E
:1059E80011EA020018BF01207047D0E900014FF00A
:1059F80000720968002808BF4FF08072C1F844217E
:105A08007047D0E900024FF000731268002808BF01
:105A18004FF080736FF00070D2F848C108BF6FF084
:105A28008070002900EA0C0018BF1843C2F848012A
:105A38007047D0E900014FF0007209680028D1F8DA
:105A4800481108BF4FF0807211EA020018BF012008
:105A58007047F0B503AF2DE9000BC16800291CBFE2
:105A6800D0E904138B425CD1016800294BD0D0E9FE
:105A78000113994247D200F1180C4FF0020E01248D
:105A88004FF0000803E0D0E9011399423BD24B1CC8
:105A9800436041F08003C9B2C0F814E041EA032131
:105AA80001830021C46005E0C2E90048D0E904137D
:105AB8008B42E8D04B1C03611CF80110C66A4B00EE
:105AC80043EAD1117568CBB29D42EDD9B56901F0B1
:105AD8000F012D68BFF35F8FADB225FA01F1C90739
:105AE800E2D07169994240F28480316903EB830303
:105AF800C2E9004801EB8303197C4906D6D0184651
:105B0800BDE8000BF0BDC1690023C36000291CBFBC
:105B1800D0E908168E4235D1C3611846BDE8000B9E
:105B2800F0BD00F118054FF0000C4FF0010E05E034
:105B3800C2E900ECD0E904138B4295D04B1C0361F9
:105B4800695CC46A4B0043EAD1116668CBB29E42D5
:105B5800EED9A66901F00F013668BFF35F8FB6B2C0
:105B680026FA01F1C907E3D06169994241D921694F
:105B780003EB8303C2E900EC01EB8303197C4906BC
:105B8800D8D0BCE700F128094FF0000E4FF001080B
:105B980005E0C2E9008ED0E908168E42BCD04E1C42
:105BA800066219F80110C66A4D0045EAD1117468F9
:105BB8005FFA81FC6445ECD9B46901F00F012468EF
:105BC800BFF35F8FA4B224FA01F1C907E1D071696C
:105BD800614516D931690CEB8C06C2E9008E01EBE0
:105BE80086010E7C7606D6D00B461846BDE8000B1B
:105BF800F0BD40F6E0421846C2F2200202F00FFD66
:105C0800FEDE40F6E0426046C2F2200202F007FDE6
:105C1800FEDEF0B503AF2DE9000B84464668C8B236
:105C28004D0045EAD014E0B2864217D9DCF8189046
:105C380004F00F04D7F80880012606FA04FEBFF323
:105C48005F8F59E8006F46EA0E0449E80045002DC9
:105C5800F7D116EA0E0FBFF35F8F03D00020BDE81F
:105C6800000BF0BDDCF80CE0864542D9DCF814E006
:105C7800864546D9DCF800601D46B3F5806F06EB13
:105C88008014266846F000562660266828BF4FF420
:105C980080656FF31A4646EA0546266026685FEA7D
:105CA8000865DCF808E026F40049DCF810C04EB2BC
:105CB8004D4608BF05F50045B6F1FF3FD8BF4D4634
:105CC8002560450101264EF805600EEB401600EBF5
:105CD8008000756825F0FF0575604CF820200CEBF6
:105CE80080000174011D80F8118058C1BDE8000BC7
:105CF800F0BD40F6F042C2F22002714602F08FFC7D
:105D0800FEDE40F60052C2F22002714602F087FC25
:105D1800FEDE7047F0B503AF4DF804BD82B004460F
:105D280090F834000D46A8B12068E0BB206A4FF017
:105D3800FF312160D0F8481121F0450165F30001D9
:105D480065F3820165F38611C0F8481120680130B7
:105D5800206024E002F04DFB064602F040FB02F012
:105D680050FB2068F8B9206A4FF0FF312160D0F865
:105D7800481121F0450165F3000165F3820165F3DF
:105D88008611C0F84811206801302060F00706D15C
:105D980002B05DF804BBBDE8F04002F022BB02B0DF
:105DA8005DF804BBF0BD40F6B45040F6A453C2F20F
:105DB8002000A7F11102009040F26C00C2F220000E
:105DC800C2F22003102102F04BFCFEDEF0B503AF57
:105DD8004DF804BD82B0044690F834000E4648B32E
:105DE8002068002869D14FF0FF3071002060F0B2C0
:105DF80041EAD011A268C8B2824217D9E26901F01B
:105E08000F011268BFF35F8F92B222FA01F1C9073E
:105E18000CD0A169814249D9616900EB800001EB8E
:105E280080008068016821F000510160206801301D
:105E3800206037E002F0DDFA054602F0D0FA02F001
:105E4800E0FA2068C8BB4FF0FF3071002060F0B264
:105E580041EAD011A268C8B2824217D9E26901F0BA
:105E68000F011268BFF35F8F92B222FA01F1C907DE
:105E78000CD0A169814219D9616900EB800001EB5E
:105E880080008068016821F00051016020680130BD
:105E98002060E80706D102B05DF804BBBDE8F04019
:105EA80002F09FBA02B05DF804BBF0BD40F6E042D4
:105EB800C2F2200202F0B3FBFEDE40F6B45040F618
:105EC800A453C2F22000A7F11102009040F26C0026
:105ED800C2F22000C2F22003102102F0C1FBFEDE54
:105EE800F0B503AF2DE9000F83B0066831680029CB
:105EF80040F0F580D0E90119B346D0E903854FF0A9
:105F0800FF304BF8040B087898B34D78B2686800F6
:105F180040EAD511C8B2824211D9F26901F00F01E5
:105F28001268BFF35F8F92B222FA01F1C90706D057
:105F3800B169814240F2CC8001200521C1E0F26ABA
:105F48000120B9F8003004219A4222BFB46AD21A5B
:105F5800A242C0F0B680F262294698F8000000908C
:105F68005846FFF756FE002800F0CC80002029464E
:105F7800A7E02878B26840F0010A4FEA4A0141EAEE
:105F8800D011C8B2824240F28680F26901F00F0156
:105F98001268BFF35F8F92B222FA01F1C9077AD073
:105FA800B169814240F294802878B26840F0020AD0
:105FB8004FEA4A0141EAD011C8B282426BD9F2696C
:105FC80001F00F011268BFF35F8F92B222FA01F15C
:105FD800C90760D0B16981427AD92878B26840F09F
:105FE800030A4FEA4A0141EAD011C8B2824252D9A3
:105FF800F26901F00F011268BFF35F8F92B222FAC3
:1060080001F1C90747D0B169814261D92878B268DE
:1060180040F0040A4FEA4A0141EAD011C8B282426C
:1060280039D9F26901F00F011268BFF35F8F92B29C
:1060380022FA01F1C9072ED0B169814248D92878DE
:10604800B26840F0050A4FEA4A0141EAD011C8B2E5
:10605800824220D9F26901F00F011268BFF35F8F05
:1060680092B222FA01F1C90715D0B16981422FD93C
:10607800287840F0060A5846514600F0EDFC50B129
:10608800287840F0070A5846514600F0E5FC10B160
:106098000120032115E0F26A0120B9F8003004213B
:1060A8009A4222BFB56AD21AAA420AD3F26251466C
:1060B80098F8000000905846FFF7ABFD10B3002099
:1060C800514632680132326003B0BDE8000FF0BDBE
:1060D80040F6D042C2F2200202F0A1FAFEDE40F6FB
:1060E800B45040F6A453C2F22000A7F11D0200905C
:1060F80040F26C00C2F22000C2F22003102102F02C
:10610800AFFAFEDE40F6C45040F6C062C2F220008C
:10611800C2F220022B2102F06BFAFEDEB0B502AF0C
:1061280082B0044690F8340060B1206828BB4FF074
:10613800FF302060201D01F04FFA206801302060F8
:1061480002B0B0BD02F055F9054602F048F902F078
:1061580058F9206888B94FF0FF302060201D01F001
:106168003BFA206801302060E80704D102B0BDE89E
:10617800B04002F036B902B0B0BD40F6B45040F6B7
:10618800A453C2F22000A7F10902009040F26C006B
:10619800C2F22000C2F22003102102F061FAFEDEF2
:1061A800F0B503AF4DF804BD88B007F82A1CA7F175
:1061B8002A010791A7F127010691A7F12601059168
:1061C80090F83410D7E9025607F8292CA7F12902CC
:1061D80007F8283C07F8275C27F8266CCDE9030266
:1061E80021B103A8FFF77CFE0C4611E002F001F98B
:1061F800064602F0F4F802F004F903A8FFF770FE6F
:106208000546F0070C4608BF02F0EBF805F0010060
:1062180000F00100214608B05DF804BBF0BDF0B500
:1062280003AF4DF804BD82B0044690F834000D4623
:1062380070B1206870BB206A4FF0FF312160690699
:1062480001F18071C0F854112068013020601DE010
:1062580002F0CFF8064602F0C2F802F0D2F8206841
:10626800C0B9206A4FF0FF312160690601F18071E1
:10627800C0F85411206801302060F00706D102B040
:106288005DF804BBBDE8F04002F0ABB802B05DF8C1
:1062980004BBF0BD40F6B45040F6A453C2F220004F
:1062A800A7F11102009040F26C00C2F22000C2F285
:1062B8002003102102F0D4F9FEDEB0B502AF82B09F
:1062C800044690F8340078B12068002801BF206A9D
:1062D800D0F840110022226001BF41F00101C0F84E
:1062E800401102B0B0BD18E002F083F8054602F094
:1062F80076F802F086F8206878B9206A0022D0F88B
:106308004011226041F00101C0F84011E80717D19F
:1063180002B0BDE8B04002F064B840F6B45040F6B0
:10632800A453C2F22000A7F10902009040F26C00C9
:10633800C2F22000C2F22003102102F091F9FEDE21
:1063480002B0B0BDB0B502AF82B0044690F83400D8
:10635800E8B32068002840F08580206A4FF0FF31BC
:106368002160D0F8B811C0F8B811D0F8BC11C0F845
:10637800BC11D0F87811C0F878110021C0F87C1150
:10638800D0F8B01159B1D0F8B01100291CBFD0F81D
:10639800B011002903D0D0F8B0110029F0D14FF086
:1063A800FF31C0F8B411D0F8B41159B1D0F8B41114
:1063B80000291CBFD0F8B411002903D0D0F8B411BB
:1063C8000029F0D120680130206002B0B0BD02F091
:1063D80010F8054602F003F802F013F820680028C8
:1063E80040D1206A4FF0FF312160D0F8B811C0F8D1
:1063F800B811D0F8BC11C0F8BC11D0F87811C0F8A9
:1064080078110021C0F87C11D0F8B01159B1D0F83A
:10641800B01100291CBFD0F8B011002903D0D0F862
:10642800B0110029F0D14FF0FF31C0F8B411D0F805
:10643800B41159B1D0F8B41100291CBFD0F8B41167
:10644800002903D0D0F8B4110029F0D12068013018
:106458002060E80704D102B0BDE8B04001F0C1BF38
:1064680002B0B0BD40F6B45040F6A453C2F22000CA
:10647800A7F10902009040F26C00C2F22000C2F2BB
:106488002003102102F0ECF8FEDEF0B503AF2DE991
:10649800000784B0044691F83400D7F808809A467B
:1064A80016460D46B8B32868002840F09E804FF085
:1064B800FF3071002860F0B241EAD011AA68C8B272
:1064C80082421DD9EA6901F00F011268BFF35F8F9C
:1064D80092B222FA01F1C90712D0A96981427DD985
:1064E800291D70065FD001A852464346009600F069
:1064F80028FE9DF8040000285ED09DF8050000E005
:1065080005206070012029682070481C286004B0AC
:10651800BDE80007F0BD01F06CFF814601F05FFFA8
:1065280001F06FFF286800285FD14FF0FF3071003D
:106538002860F0B241EAD011AA68C8B282421ED9D6
:10654800EA6901F00F011268BFF35F8F92B222FA75
:1065580001F1C90713D0A96981423FD9291D7006E5
:106568002ED001A852464346009600F0EAFD9DF859
:10657800040070B39DF805604FF0010802E04FF089
:10658800010805262868013028605FEAC97008BF3D
:1065980001F027FFF0B248EA0020C4E9000A04B07D
:1065A800BDE80007F0BD01A85246434600F0B2FB23
:1065B8009DF804000028A0D1029860600020A2E79E
:1065C80001A85246434600F0A5FB9DF804000028A8
:1065D800D0D1DDF808A04FF00008D3E740F6D0424C
:1065E800C2F2200202F01BF8FEDE40F6B45040F67C
:1065F800A453C2F22000A7F11902009040F26C00E7
:10660800C2F22000C2F22003102102F029F8FEDEB7
:10661800F0B503AF2DE9000784B0044691F83400C3
:10662800D7F808809A4616460D46B8B32868002859
:1066380040F09E804FF0FF3071002860F0B241EAD0
:10664800D011AA68C8B282421DD9EA6901F00F01C7
:106658001268BFF35F8F92B222FA01F1C90712D014
:10666800A96981427DD9291D70065FD001A85246CB
:106678004346009600F088FC9DF8040000285ED090
:106688009DF8050000E00520607001202968207051
:10669800481C286004B0BDE80007F0BD01F0A9FE61
:1066A800814601F09CFE01F0ACFE286800285FD10D
:1066B8004FF0FF3071002860F0B241EAD011AA68AB
:1066C800C8B282421ED9EA6901F00F011268BFF30D
:1066D8005F8F92B222FA01F1C90713D0A9698142EA
:1066E8003FD9291D70062ED001A852464346009670
:1066F80000F04AFC9DF8040070B39DF805604FF067
:10670800010802E04FF001080526286801302860DA
:106718005FEAC97008BF01F064FEF0B248EA0020E1
:10672800C4E9000A04B0BDE80007F0BD01A852465C
:10673800434600F0B5F99DF804000028A0D102985E
:1067480060600020A2E701A85246434600F0A8F97D
:106758009DF804000028D0D1DDF808A04FF000080B
:10676800D3E740F6D042C2F2200201F058FFFEDE25
:1067780040F6B45040F6A453C2F22000A7F1190223
:10678800009040F26C00C2F22000C2F220031021F7
:1067980001F066FFFEDEF0B503AF4DF8048D82B060
:1067A800044690F8340016460D4620B320680028A9
:1067B80060D14FF0FF3069002060E8B241EAD011A3
:1067C800A268C8B2824212D9E26901F00F011268C8
:1067D800BFF35F8F92B222FA01F1C90707D0A1690E
:1067E800814240D9201D31462A4600F099FD206893
:1067F8000130206033E001F0FCFD804601F0EFFD40
:1068080001F0FFFD2068A8BB4FF0FF306900206051
:10681800E8B241EAD011A268C8B2824212D9E2694C
:1068280001F00F011268BFF35F8F92B222FA01F1F3
:10683800C90707D0A169814215D9201D31462A46CA
:1068480000F06EFD2068013020605FEAC87006D154
:1068580002B05DF8048BBDE8F04001F0C2BD02B0A3
:106868005DF8048BF0BD40F6D042C2F2200201F080
:10687800D6FEFEDE40F6B45040F6A453C2F2200025
:10688800A7F11102009040F26C00C2F22000C2F29F
:106898002003102101F0E4FEFEDEF0B503AF4DF851
:1068A80004BD82B0044690F834000D4698B12068C3
:1068B8004FF6FE71C7F6FF7188422DD8013020606F
:1068C800201D294600F002FE21680139216002B02E
:1068D8005DF804BBF0BD01F08CFD064601F07FFDBC
:1068E80001F08FFD20684FF6FE71C7F6FF718842F0
:1068F80012D801302060201D294600F0E7FD05462A
:10690800206801382060F00708BF01F06AFD2846BA
:1069180002B05DF804BBF0BD40F6945040F6285331
:10692800C2F22000A7F11102009040F61050C2F206
:106938002000C2F22003182101F092FEFEDE70470B
:10694800F0B503AF4DF804BD86B0044691F83400A5
:106958000D4678B1286860BB4FF0FF30291D2860CC
:10696800204600F04DFF28680130286006B05DF829
:1069780004BBF0BD01F03DFD064601F030FD01F01D
:1069880040FD2868A8B94FF0FF30291D286002A8EB
:1069980000F036FF286801302860F00708BF01F0D2
:1069A80020FDDDE902012060616006B05DF804BBEE
:1069B800F0BD40F6B45040F6A453C2F22000A7F14F
:1069C8001102009040F26C00C2F22000C2F22003D3
:1069D800102101F045FEFEDE80B56F46D0E9072E96
:1069E8004FF0004C4FF08043CEF834C0CEF838C09A
:1069F800CEF838300023CEF800300223C2F84031F8
:106A0800D2F840319B070CD5D2F840319B0744BFE0
:106A1800D2F840315FEA837303D5D2F840319B073F
:106A2800EED44FF0000C0A23C2F840C10029C2F886
:106A3800A831D2F8843123F0807308BF03F1807342
:106A4800C2F88431D2F844110068C2F84411C2F87F
:106A580048C1C2F8580180BD02464368C8B249001F
:106A680041EAD011C8B2834218D9936901F00F01E5
:106A78001B68BFF35F8F9BB223FA01F1C9070DD0E2
:106A88005169814284BF0120704780B56F4640F646
:106A9800D042C2F2200201F0C2FDFEDE00207047A3
:106AA800F0B503AF2DE9000F83B08346486800288E
:106AB8001FBF88690068BFF35F8F5FEAC0700BD1A2
:106AC80040F6C45040F65062C2F22000C2F22002E2
:106AD8002B2101F08DFDFEDE4869002800F01181B0
:106AE80051F81C4F90460122082B51F80C0CD4F891
:106AF800AC5190F910E00EF01F0C02FA0CF66ED3B0
:106B080016EA05026BD08568C4F8AC61D4F8402158
:106B180042F40052C4F84021D5E90A36D4F840219D
:106B2800920425D4D4F8402142F40052C4F84021FC
:106B3800D5E90A36D4F8402192045FBFD4F8402141
:106B480042F40052C4F84021D5E90A365CBFD4F8B3
:106B580040215FEA82420BD4D4F8402142F400522B
:106B6800C4F84021D5E90A36D4F840219204CDD59D
:106B7800D4F84021012522F40052C4F84021C8F875
:106B88000460C8F80030027CD4F8B86153B202F04F
:106B98001F02002B48BF360C95402E40360614D1F4
:106BA8004FF48036B3F1FF3FC8BF01264FF47F038F
:106BB80006FA02F2C8BFFF231A40C4F87821826897
:106BC8001268C2F30A42FEF72AFE0820CBF8040036
:106BD80000208BF8000003B0BDE8000FF0BDC268CC
:106BE800526812F0680F01D0072009E0D4F8B821E4
:106BF800BEF1000F48BF120C3240120609D0002027
:106C08008BF8010001208BF8000003B0BDE8000FED
:106C1800F0BD4FF480364FF47F02BEF1FF3FC8BF8E
:106C28000126C8BFFF2206FA0CF63240C4F8BC2180
:106C380090F910204FF480394FF47F05B2F1FF3FEF
:106C480002F01F02C4BFFF254FF0010909FA02F242
:106C58002A40C4F87821C268D0E901A6356854688A
:106C6800D269C5F30A459D4238BF2B46C4F30E4589
:106C7800521B934228BF1346534538BF9A46BAF170
:106C8800000F36D0D0F8009008EB0304AAF1010CED
:106C9800AAF1020200260292AAF103020192B3426B
:106CA80026D009EB06054246B44595F800E002F8FF
:106CB80001EB18BFA2421BD06A7888F80120029A1B
:106CC800B2421CBF08F10202A24211D0AA7888F889
:106CD8000220019AB2421CBF08F10302A24207D067
:106CE800EA78043688F8032008F10408B245D6D1BA
:106CF80086683268C2F30A42FEF791FDCBF804A019
:106D080066E740F6E0420020C2F22002002101F0CE
:106D180086FCFEDEF0B503AF2DE9000F83B0804698
:106D280048680228C0F0248188690E460068BFF3CD
:106D38005F8F800740F11C817169012940F207814A
:106D48003469216A496811F0680F01D0072015E0FD
:106D5800B14694F8245059F81CCF05F01F0E4FFA8D
:106D680085FA0125DCF8B811BAF1000F48BF090C03
:106D780005FA0EF52940090609D0002088F8010017
:106D8800012088F8000003B0BDE8000FF0BD4FF403
:106D98008031BAF1FF3FC8BF01214FF47F0501FAE6
:106DA8000EF1C8BFFF252940CCF87811616904F1BC
:106DB80014000291D4E906B10968C1F30A41994265
:106DC80038BF0B465B4538BF9B46BBF1000F5BD015
:106DD800CDE90009D118ABF10100ABF1020CABF120
:106DE800030E0025AB4222D0029CA84204EB050901
:106DF800144614F801AB89F800A018BF8C4216D0CD
:106E08005478AC4589F801401CBF941C8C420ED0C4
:106E18009478AE4589F802401CBFD41C8C4206D039
:106E2800D47804350432AB4589F80340DAD101211E
:106E380001EB501404F0030501F0D5FA0298BBF1F8
:106E4800610F20F01F014EF67070CEF200000FD3D4
:106E580024F0030201F120030160036001F1400303
:106E6800036001F16003043A01F180010360F1D18C
:106E7800DDF80490002D1CBF0160012D5FD101F0E9
:106E8800B2FA01F0B3FA009849465A46FEF7C7FC31
:106E9800706800281FBFB0690068BFF35F8F5FEAA2
:106EA800C0700BD140F6C45040F67062C2F22000A8
:106EB800C2F220022B2101F09BFBFEDE7069002844
:106EC8004DD030690125F169027CD1F8B86153B21F
:106ED80002F01F02002B48BF360C95402E403606A4
:106EE80024D1B3F1FF3F4FF48033C8BF01234FF4DF
:106EF8007F0403FA02F2C8BFFF242240C1F8BC2174
:106F080090F910204FF480364FF47F05B2F1FF3F1F
:106F180002F01F02C4BFFF25012606FA02F22A402A
:106F2800C1F8782149460022FEF779FC0020C8F80C
:106F380004B088F8000003B0BDE8000FF0BD01F10F
:106F480020020260022D1CBF4031016097E740F625
:106F5800E0420120C2F2200201F061FBFEDE40F6B1
:106F6800E0420020C2F22002002101F058FBFEDEC0
:106F780040F6C45040F66062C2F22000C2F220021D
:106F88002B2101F035FBFEDEF0B503AF2DE9000F34
:106F980083B08046387A96460C464A68410041EAF2
:106FA800D011C8B2824240F2C080A26901F00F013C
:106FB8001268BFF35F8F92B222FA01F1C90700F09D
:106FC800B4806169814240F2A980216900EB8000A8
:106FD80001EB8000C168496811F0680F01D00720F3
:106FE80012E02146027C51F81CCF02F01F0956B26C
:106FF8000122DCF8B85102FA09F2002E48BF2D0C24
:107008002A40120609D0002088F80100012088F8DB
:10701800000003B0BDE8000FF0BDA28D06F00F041C
:10702800E240D207EFD04FF48034B6F1FF3FC8BF3B
:1070380001244FF47F0604FA09F4C8BFFF26344040
:10704800CCF8BC4190F910404FF480324FF47F05E2
:10705800B4F1FF3F04F01F04C4BFFF250122A24082
:107068002A40CCF87821C268D0E901A6356854686E
:10707800D269C5F30A459D4238BF2B46C4F30E4575
:10708800521B934228BF1346534538BF9A46BAF15C
:10709800000F35D0D0F800900EEB030BAAF1010CCD
:1070A800AAF1020200260292AAF103020192B34257
:1070B80025D009EB06047246B445257802F8015B31
:1070C80018BF5A451BD062788EF80120029AB24246
:1070D8001CBF0EF102025A4511D0A2788EF8022088
:1070E800019AB2421CBF0EF103025A4507D0E2785A
:1070F80004368EF803200EF1040EB245D7D1866807
:107108003268C2F30A42FEF78AFBC8F804A00020DE
:1071180088F8000003B0BDE8000FF0BD40F6E0427B
:10712800C2F2200201F07BFAFEDE40F6C45040F6BF
:107138008062C2F22000C2F220022B2101F058FA2C
:10714800FEDEF0B503AF2DE9000F83B08346387A31
:1071580091460D464A68410041EAD011C8B28242C0
:1071680040F2D280AA6901F00F011268BFF35F8F65
:1071780092B222FA01F1C90700F0C680696981421A
:1071880040F2BB80296900EB800001EB800ADAF845
:107198000C00406810F0680F01D0072011E09AF841
:1071A8001010012655F81C0F4CB201F01F01D0F841
:1071B800B821002C48BF120C8E403240120609D06C
:1071C80000208BF8010001208BF8000003B0BDE817
:1071D800000FF0BD4FF48032B4F1FF3FC8BF012269
:1071E8004FF47F0602FA01F1C8BFFF263140C0F80C
:1071F8007811DAF800000290DAE901800068C0F33B
:107208000A40984238BF0346434538BF9846B8F10C
:10721800000F5CD0A8F1030009EB0301A8F10106F7
:10722800A8F1020C01900020834226D0029A8642DF
:1072380002EB00044A4612F801EB84F800E018BF9C
:107248008A421AD099F80120844562701CBF09F15E
:1072580002028A4211D099F80220A270019A824251
:107268001CBF09F103028A4207D099F803200430B1
:1072780009F104098045E270D6D1012000EB5614CB
:1072880004F0030601F0AFF80298B8F1610F20F09E
:107298001F014EF67070CEF200000FD324F00302E7
:1072A80001F120030160036001F14003036001F173
:1072B8006003043A01F180010360F1D1002E1CBF84
:1072C8000160012E11D101F08EF801F08FF85046BF
:1072D80029464246FEF7A3FACBF8048000208BF833
:1072E800000003B0BDE8000FF0BD01F1200202600C
:1072F800022E1CBF40310160E5E740F6E042C2F2D1
:10730800200201F08CF9FEDE40F6C45040F690628F
:10731800C2F22000C2F220022B2101F069F9FEDE40
:10732800B0B502AF8AB003464468D0B2550045EA0A
:10733800D015E8B2844240F2A1809C6905F00F059F
:107348002468BFF35F8FA4B224FA05F5ED0700F0B7
:107358009580D3F814C0844540F288801D6900EBFD
:10736800800005EB8000057C05F07F040194072C64
:1073780000F2908003F11C0C4FFA85FEDFE804F060
:1073880004280D161F313A4BDCF8005005F5E0745F
:107398002368BEF1000F46D534E0DCF8005005F54F
:1073A800E4742368BEF1000F3DD52BE0DCF80050F3
:1073B80005F5E6742368BEF1000F34D522E0DCF849
:1073C800005005F5E8742368BEF1000F2BD519E0CD
:1073D800DCF8005005F5E2742368BEF1000F22D5F1
:1073E80010E0DCF8005005F5EA742368BEF1000FE0
:1073F80019D507E0DCF8005005F5EC742368BEF1F8
:10740800000F10D523F4803361F3104352B2002AE1
:1074180023600FD51EE0DCF8005005F5EE742368F4
:10742800BEF1000FEED423F001030B4452B2002A40
:1074380023600FD471B9D5F8B811012390F9102041
:10744800002A02F01F0248BF090C03FA02F2114099
:10745800090601D00AB0B0BD81680968C1F30A42C3
:1074680061460AB0BDE8B040FEF7D9B940F6E0423F
:107478006146C2F2200201F0D2F8FEDE40F6C450A6
:1074880040F6A062C2F22000C2F220022B2101F0D5
:10749800AFF8FEDE002040F660410690022003901F
:1074A80040F6F430C2F22000C2F22001029001201E
:1074B800059008A8049047F20D10C0F2000009904A
:1074C80001A8089002A801F07DF8FEDE80B56F469D
:1074D8008AB0CBB2490041EAD3114268CBB29A4292
:1074E80052D9826901F00F011268BFF35F8F92B21F
:1074F80022FA01F1C90747D0416999423CD901698B
:1075080003EB830201EB8201097C01F07F02019207
:10751800072A45D849B2DFE802F00414080C10180D
:107528001C20C06900F5E0701AE0C06900F5E4703D
:1075380016E0C06900F5E67012E0C06900F5E87071
:107548000EE0C06900F5E2700AE0C06900F5EA7073
:1075580006E0C06900F5EC7002E0C06900F5EE7065
:1075680000684FF48032B1F1FF3FC8BF01221040DC
:1075780018BF01200AB080BD40F6D0421846C2F2BA
:10758800200201F04CF8FEDE40F6C45040F6B0622E
:10759800C2F22000C2F220022B2101F029F8FEDEFF
:1075A800002040F6604106900220039040F6F43037
:1075B800C2F22000C2F2200102900120059008A822
:1075C800049047F20D10C0F20000099001A808903D
:1075D80002A800F0F7FFFEDEF0B503AF2DE90007C3
:1075E8009AB0002680461090082001ADCDE90660CB
:1075F800012008F11C0405F1100A0DF14809059055
:1076080000200C9608960396019645E0017C11F03F
:107618007F0204D15FE0017C11F07F0243D0119218
:10762800013A062A00F2CF80DFE802F004080C10C5
:1076380014181C00226802F5E27216E0226802F5AE
:10764800E47212E0226802F5E6720EE0226802F5A2
:10765800E8720AE0226802F5EA7206E0226802F59A
:10766800EC7202E0226802F5EE72407C49B21368BF
:10767800B1F1FF3F08DD00F00F0023F00C0141EAF3
:10768800800040F0C00005E023F44C0141EA80404E
:1076980040F4400010600198129500281EBF02981F
:1076A80002960028B7D10598019602280AD05046BC
:1076B80049462A46FEF7CDF920B1017C11F07F0238
:1076C800ADD1E8E70398019600281EBF04980496F8
:1076D80000287FF49BAF00260820CDF840800DF1EC
:1076E8004808CDE906600120059000200C96089610
:1076F8000396019600E00198129500281EBF029893
:10770800029600281BD10598019602280AD05046F7
:1077180041462A46FEF79DF920B1017C11F07F020F
